{
  "address": "0x9cB622ca2c96C402FED1Dc2B86F5b41aB6338b20",
  "abi": [
    {
      "inputs": [
        {
          "internalType": "contract IERC20",
          "name": "_gdl",
          "type": "address"
        },
        {
          "internalType": "uint256",
          "name": "_withdrawalFee",
          "type": "uint256"
        }
      ],
      "stateMutability": "nonpayable",
      "type": "constructor"
    },
    {
      "anonymous": false,
      "inputs": [
        {
          "indexed": true,
          "internalType": "address",
          "name": "owner",
          "type": "address"
        },
        {
          "indexed": true,
          "internalType": "address",
          "name": "spender",
          "type": "address"
        },
        {
          "indexed": false,
          "internalType": "uint256",
          "name": "value",
          "type": "uint256"
        }
      ],
      "name": "Approval",
      "type": "event"
    },
    {
      "anonymous": false,
      "inputs": [
        {
          "indexed": true,
          "internalType": "address",
          "name": "previousOwner",
          "type": "address"
        },
        {
          "indexed": true,
          "internalType": "address",
          "name": "newOwner",
          "type": "address"
        }
      ],
      "name": "OwnershipTransferred",
      "type": "event"
    },
    {
      "anonymous": false,
      "inputs": [
        {
          "indexed": true,
          "internalType": "address",
          "name": "from",
          "type": "address"
        },
        {
          "indexed": true,
          "internalType": "address",
          "name": "to",
          "type": "address"
        },
        {
          "indexed": false,
          "internalType": "uint256",
          "name": "value",
          "type": "uint256"
        }
      ],
      "name": "Transfer",
      "type": "event"
    },
    {
      "inputs": [],
      "name": "MAX_BP",
      "outputs": [
        {
          "internalType": "uint256",
          "name": "",
          "type": "uint256"
        }
      ],
      "stateMutability": "view",
      "type": "function"
    },
    {
      "inputs": [],
      "name": "MAX_WITHDRAWAL_FEE",
      "outputs": [
        {
          "internalType": "uint256",
          "name": "",
          "type": "uint256"
        }
      ],
      "stateMutability": "view",
      "type": "function"
    },
    {
      "inputs": [
        {
          "internalType": "address",
          "name": "owner",
          "type": "address"
        },
        {
          "internalType": "address",
          "name": "spender",
          "type": "address"
        }
      ],
      "name": "allowance",
      "outputs": [
        {
          "internalType": "uint256",
          "name": "",
          "type": "uint256"
        }
      ],
      "stateMutability": "view",
      "type": "function"
    },
    {
      "inputs": [
        {
          "internalType": "address",
          "name": "spender",
          "type": "address"
        },
        {
          "internalType": "uint256",
          "name": "amount",
          "type": "uint256"
        }
      ],
      "name": "approve",
      "outputs": [
        {
          "internalType": "bool",
          "name": "",
          "type": "bool"
        }
      ],
      "stateMutability": "nonpayable",
      "type": "function"
    },
    {
      "inputs": [
        {
          "internalType": "address",
          "name": "account",
          "type": "address"
        }
      ],
      "name": "balanceOf",
      "outputs": [
        {
          "internalType": "uint256",
          "name": "",
          "type": "uint256"
        }
      ],
      "stateMutability": "view",
      "type": "function"
    },
    {
      "inputs": [],
      "name": "decimals",
      "outputs": [
        {
          "internalType": "uint8",
          "name": "",
          "type": "uint8"
        }
      ],
      "stateMutability": "view",
      "type": "function"
    },
    {
      "inputs": [
        {
          "internalType": "address",
          "name": "spender",
          "type": "address"
        },
        {
          "internalType": "uint256",
          "name": "subtractedValue",
          "type": "uint256"
        }
      ],
      "name": "decreaseAllowance",
      "outputs": [
        {
          "internalType": "bool",
          "name": "",
          "type": "bool"
        }
      ],
      "stateMutability": "nonpayable",
      "type": "function"
    },
    {
      "inputs": [
        {
          "internalType": "uint256",
          "name": "_amount",
          "type": "uint256"
        }
      ],
      "name": "enter",
      "outputs": [],
      "stateMutability": "nonpayable",
      "type": "function"
    },
    {
      "inputs": [],
      "name": "gdl",
      "outputs": [
        {
          "internalType": "contract IERC20",
          "name": "",
          "type": "address"
        }
      ],
      "stateMutability": "view",
      "type": "function"
    },
    {
      "inputs": [
        {
          "internalType": "uint256",
          "name": "_share",
          "type": "uint256"
        }
      ],
      "name": "getRatio",
      "outputs": [
        {
          "internalType": "uint256",
          "name": "",
          "type": "uint256"
        }
      ],
      "stateMutability": "view",
      "type": "function"
    },
    {
      "inputs": [
        {
          "internalType": "address",
          "name": "spender",
          "type": "address"
        },
        {
          "internalType": "uint256",
          "name": "addedValue",
          "type": "uint256"
        }
      ],
      "name": "increaseAllowance",
      "outputs": [
        {
          "internalType": "bool",
          "name": "",
          "type": "bool"
        }
      ],
      "stateMutability": "nonpayable",
      "type": "function"
    },
    {
      "inputs": [
        {
          "internalType": "uint256",
          "name": "_share",
          "type": "uint256"
        }
      ],
      "name": "leave",
      "outputs": [],
      "stateMutability": "nonpayable",
      "type": "function"
    },
    {
      "inputs": [],
      "name": "name",
      "outputs": [
        {
          "internalType": "string",
          "name": "",
          "type": "string"
        }
      ],
      "stateMutability": "view",
      "type": "function"
    },
    {
      "inputs": [],
      "name": "owner",
      "outputs": [
        {
          "internalType": "address",
          "name": "",
          "type": "address"
        }
      ],
      "stateMutability": "view",
      "type": "function"
    },
    {
      "inputs": [],
      "name": "renounceOwnership",
      "outputs": [],
      "stateMutability": "nonpayable",
      "type": "function"
    },
    {
      "inputs": [
        {
          "internalType": "uint256",
          "name": "_withdrawalFee",
          "type": "uint256"
        }
      ],
      "name": "setWithdrawFee",
      "outputs": [],
      "stateMutability": "nonpayable",
      "type": "function"
    },
    {
      "inputs": [],
      "name": "symbol",
      "outputs": [
        {
          "internalType": "string",
          "name": "",
          "type": "string"
        }
      ],
      "stateMutability": "view",
      "type": "function"
    },
    {
      "inputs": [],
      "name": "totalSupply",
      "outputs": [
        {
          "internalType": "uint256",
          "name": "",
          "type": "uint256"
        }
      ],
      "stateMutability": "view",
      "type": "function"
    },
    {
      "inputs": [
        {
          "internalType": "address",
          "name": "recipient",
          "type": "address"
        },
        {
          "internalType": "uint256",
          "name": "amount",
          "type": "uint256"
        }
      ],
      "name": "transfer",
      "outputs": [
        {
          "internalType": "bool",
          "name": "",
          "type": "bool"
        }
      ],
      "stateMutability": "nonpayable",
      "type": "function"
    },
    {
      "inputs": [
        {
          "internalType": "address",
          "name": "sender",
          "type": "address"
        },
        {
          "internalType": "address",
          "name": "recipient",
          "type": "address"
        },
        {
          "internalType": "uint256",
          "name": "amount",
          "type": "uint256"
        }
      ],
      "name": "transferFrom",
      "outputs": [
        {
          "internalType": "bool",
          "name": "",
          "type": "bool"
        }
      ],
      "stateMutability": "nonpayable",
      "type": "function"
    },
    {
      "inputs": [
        {
          "internalType": "address",
          "name": "newOwner",
          "type": "address"
        }
      ],
      "name": "transferOwnership",
      "outputs": [],
      "stateMutability": "nonpayable",
      "type": "function"
    },
    {
      "inputs": [],
      "name": "withdrawalFee",
      "outputs": [
        {
          "internalType": "uint256",
          "name": "",
          "type": "uint256"
        }
      ],
      "stateMutability": "view",
      "type": "function"
    }
  ],
  "transactionHash": "0x865c6a391510dc67f4f636a05e74ca7526338285a5a8008c2a3eddb08f5079cb",
  "args": [
    "0x3814FC9Da61B93F31406fC77D2a979866D3bf8b1",
    300
  ],
  "solcInputHash": "cbf88da931328edd72d3defa873e82cd",
  "bytecode": "0x60806040523480156200001157600080fd5b506040516200186e3803806200186e833981810160405260408110156200003757600080fd5b5080516020918201516040805180820182526004808252631e11d11360e21b82870181815284518086019095529184529583019590955280519394929390926200008591600391906200013b565b5080516200009b9060049060208401906200013b565b50506005805460ff19166012179055506000620000b762000137565b60058054610100600160a81b0319166101006001600160a01b03841690810291909117909155604051919250906000907f8be0079c531659141344cd1fd0a4f28419497f9722a3daafe3b4186f6b6457e0908290a350600680546001600160a01b0319166001600160a01b039390931692909217909155600755620001d7565b3390565b828054600181600116156101000203166002900490600052602060002090601f016020900481019282601f106200017e57805160ff1916838001178555620001ae565b82800160010185558215620001ae579182015b82811115620001ae57825182559160200191906001019062000191565b50620001bc929150620001c0565b5090565b5b80821115620001bc5760008155600101620001c1565b61168780620001e76000396000f3fe608060405234801561001057600080fd5b50600436106101825760003560e01c80638bc7e8c4116100d8578063a59f3e0c1161008c578063dd62ed3e11610066578063dd62ed3e1461041e578063eb6ed3301461044c578063f2fde38b1461045457610182565b8063a59f3e0c146103b8578063a9059cbb146103d5578063b6ac642a1461040157610182565b806395d89b41116100bd57806395d89b411461037c5780639dd6edc214610384578063a457c2d71461038c57610182565b80638bc7e8c4146103505780638da5cb5b1461035857610182565b8063313ce5671161013a57806367dfd4c91161011457806367dfd4c91461030357806370a0823114610322578063715018a61461034857610182565b8063313ce5671461029c57806339509351146102ba57806346a62eaf146102e657610182565b806311e4565c1161016b57806311e4565c1461024457806318160ddd1461025e57806323b872dd1461026657610182565b806306fdde0314610187578063095ea7b314610204575b600080fd5b61018f61047a565b6040805160208082528351818301528351919283929083019185019080838360005b838110156101c95781810151838201526020016101b1565b50505050905090810190601f1680156101f65780820380516001836020036101000a031916815260200191505b509250505060405180910390f35b6102306004803603604081101561021a57600080fd5b506001600160a01b03813516906020013561052e565b604080519115158252519081900360200190f35b61024c61054c565b60408051918252519081900360200190f35b61024c610552565b6102306004803603606081101561027c57600080fd5b506001600160a01b03813581169160208101359091169060400135610558565b6102a46105df565b6040805160ff9092168252519081900360200190f35b610230600480360360408110156102d057600080fd5b506001600160a01b0381351690602001356105e8565b61024c600480360360208110156102fc57600080fd5b5035610636565b6103206004803603602081101561031957600080fd5b5035610703565b005b61024c6004803603602081101561033857600080fd5b50356001600160a01b031661088e565b6103206108a9565b61024c610984565b61036061098a565b604080516001600160a01b039092168252519081900360200190f35b61018f61099e565b610360610a1d565b610230600480360360408110156103a257600080fd5b506001600160a01b038135169060200135610a2c565b610320600480360360208110156103ce57600080fd5b5035610a94565b610230600480360360408110156103eb57600080fd5b506001600160a01b038135169060200135610c13565b6103206004803603602081101561041757600080fd5b5035610c27565b61024c6004803603604081101561043457600080fd5b506001600160a01b0381358116916020013516610ce1565b61024c610d0c565b6103206004803603602081101561046a57600080fd5b50356001600160a01b0316610d12565b60038054604080516020601f60027fffffffffffffffffffffffffffffffffffffffffffffffffffffffffffffffff6101006001881615020190951694909404938401819004810282018101909252828152606093909290918301828280156105245780601f106104f957610100808354040283529160200191610524565b820191906000526020600020905b81548152906001019060200180831161050757829003601f168201915b5050505050905090565b600061054261053b610e49565b8484610e4d565b5060015b92915050565b61271081565b60025490565b6000610565848484610f39565b6105d584610571610e49565b6105d08560405180606001604052806028815260200161156f602891396001600160a01b038a166000908152600160205260408120906105af610e49565b6001600160a01b031681526020810191909152604001600020549190611094565b610e4d565b5060019392505050565b60055460ff1690565b60006105426105f5610e49565b846105d08560016000610606610e49565b6001600160a01b03908116825260208083019390935260409182016000908120918c16815292529020549061112b565b600080610641610552565b9050806106525760009150506106fe565b600654604080517f70a0823100000000000000000000000000000000000000000000000000000000815230600482015290516000926106f99285926106f3926001600160a01b0316916370a08231916024808301926020929190829003018186803b1580156106c057600080fd5b505afa1580156106d4573d6000803e3d6000fd5b505050506040513d60208110156106ea57600080fd5b5051879061118c565b906111e5565b925050505b919050565b600061070d610552565b600654604080517f70a0823100000000000000000000000000000000000000000000000000000000815230600482015290519293506000926107b49285926106f3926001600160a01b03909216916370a0823191602480820192602092909190829003018186803b15801561078157600080fd5b505afa158015610795573d6000803e3d6000fd5b505050506040513d60208110156107ab57600080fd5b5051869061118c565b90506107c0338461124c565b60006107dd6127106106f36007548561118c90919063ffffffff16565b905060006107eb8383611348565b600654604080517fa9059cbb0000000000000000000000000000000000000000000000000000000081523360048201526024810184905290519293506001600160a01b039091169163a9059cbb916044808201926020929091908290030181600087803b15801561085b57600080fd5b505af115801561086f573d6000803e3d6000fd5b505050506040513d602081101561088557600080fd5b50505050505050565b6001600160a01b031660009081526020819052604090205490565b6108b1610e49565b6001600160a01b03166108c261098a565b6001600160a01b03161461091d576040805162461bcd60e51b815260206004820181905260248201527f4f776e61626c653a2063616c6c6572206973206e6f7420746865206f776e6572604482015290519081900360640190fd5b60055460405160009161010090046001600160a01b0316907f8be0079c531659141344cd1fd0a4f28419497f9722a3daafe3b4186f6b6457e0908390a3600580547fffffffffffffffffffffff0000000000000000000000000000000000000000ff169055565b60075481565b60055461010090046001600160a01b031690565b60048054604080516020601f60027fffffffffffffffffffffffffffffffffffffffffffffffffffffffffffffffff6101006001881615020190951694909404938401819004810282018101909252828152606093909290918301828280156105245780601f106104f957610100808354040283529160200191610524565b6006546001600160a01b031681565b6000610542610a39610e49565b846105d08560405180606001604052806025815260200161162d6025913960016000610a63610e49565b6001600160a01b03908116825260208083019390935260409182016000908120918d16815292529020549190611094565b600654604080517f70a0823100000000000000000000000000000000000000000000000000000000815230600482015290516000926001600160a01b0316916370a08231916024808301926020929190829003018186803b158015610af857600080fd5b505afa158015610b0c573d6000803e3d6000fd5b505050506040513d6020811015610b2257600080fd5b505190506000610b30610552565b9050801580610b3d575081155b15610b5157610b4c33846113a5565b610b6f565b6000610b61836106f3868561118c565b9050610b6d33826113a5565b505b600654604080517f23b872dd0000000000000000000000000000000000000000000000000000000081523360048201523060248201526044810186905290516001600160a01b03909216916323b872dd916064808201926020929091908290030181600087803b158015610be257600080fd5b505af1158015610bf6573d6000803e3d6000fd5b505050506040513d6020811015610c0c57600080fd5b5050505050565b6000610542610c20610e49565b8484610f39565b610c2f610e49565b6001600160a01b0316610c4061098a565b6001600160a01b031614610c9b576040805162461bcd60e51b815260206004820181905260248201527f4f776e61626c653a2063616c6c6572206973206e6f7420746865206f776e6572604482015290519081900360640190fd5b6103e8811115610cdc5760405162461bcd60e51b815260040180806020018281038252602c815260200180611601602c913960400191505060405180910390fd5b600755565b6001600160a01b03918216600090815260016020908152604080832093909416825291909152205490565b6103e881565b610d1a610e49565b6001600160a01b0316610d2b61098a565b6001600160a01b031614610d86576040805162461bcd60e51b815260206004820181905260248201527f4f776e61626c653a2063616c6c6572206973206e6f7420746865206f776e6572604482015290519081900360640190fd5b6001600160a01b038116610dcb5760405162461bcd60e51b81526004018080602001828103825260268152602001806114e06026913960400191505060405180910390fd5b6005546040516001600160a01b0380841692610100900416907f8be0079c531659141344cd1fd0a4f28419497f9722a3daafe3b4186f6b6457e090600090a3600580546001600160a01b03909216610100027fffffffffffffffffffffff0000000000000000000000000000000000000000ff909216919091179055565b3390565b6001600160a01b038316610e925760405162461bcd60e51b81526004018080602001828103825260248152602001806115dd6024913960400191505060405180910390fd5b6001600160a01b038216610ed75760405162461bcd60e51b81526004018080602001828103825260228152602001806115066022913960400191505060405180910390fd5b6001600160a01b03808416600081815260016020908152604080832094871680845294825291829020859055815185815291517f8c5be1e5ebec7d5bd14f71427d1e84f3dd0314c0f7b2291e5b200ac8c7c3b9259281900390910190a3505050565b6001600160a01b038316610f7e5760405162461bcd60e51b81526004018080602001828103825260258152602001806115b86025913960400191505060405180910390fd5b6001600160a01b038216610fc35760405162461bcd60e51b815260040180806020018281038252602381526020018061149b6023913960400191505060405180910390fd5b610fce838383611495565b61100b81604051806060016040528060268152602001611528602691396001600160a01b0386166000908152602081905260409020549190611094565b6001600160a01b03808516600090815260208190526040808220939093559084168152205461103a908261112b565b6001600160a01b038084166000818152602081815260409182902094909455805185815290519193928716927fddf252ad1be2c89b69c2b068fc378daa952ba7f163c4a11628f55a4df523b3ef92918290030190a3505050565b600081848411156111235760405162461bcd60e51b81526004018080602001828103825283818151815260200191508051906020019080838360005b838110156110e85781810151838201526020016110d0565b50505050905090810190601f1680156111155780820380516001836020036101000a031916815260200191505b509250505060405180910390fd5b505050900390565b600082820183811015611185576040805162461bcd60e51b815260206004820152601b60248201527f536166654d6174683a206164646974696f6e206f766572666c6f770000000000604482015290519081900360640190fd5b9392505050565b60008261119b57506000610546565b828202828482816111a857fe5b04146111855760405162461bcd60e51b815260040180806020018281038252602181526020018061154e6021913960400191505060405180910390fd5b600080821161123b576040805162461bcd60e51b815260206004820152601a60248201527f536166654d6174683a206469766973696f6e206279207a65726f000000000000604482015290519081900360640190fd5b81838161124457fe5b049392505050565b6001600160a01b0382166112915760405162461bcd60e51b81526004018080602001828103825260218152602001806115976021913960400191505060405180910390fd5b61129d82600083611495565b6112da816040518060600160405280602281526020016114be602291396001600160a01b0385166000908152602081905260409020549190611094565b6001600160a01b0383166000908152602081905260409020556002546113009082611348565b6002556040805182815290516000916001600160a01b038516917fddf252ad1be2c89b69c2b068fc378daa952ba7f163c4a11628f55a4df523b3ef9181900360200190a35050565b60008282111561139f576040805162461bcd60e51b815260206004820152601e60248201527f536166654d6174683a207375627472616374696f6e206f766572666c6f770000604482015290519081900360640190fd5b50900390565b6001600160a01b038216611400576040805162461bcd60e51b815260206004820152601f60248201527f45524332303a206d696e7420746f20746865207a65726f206164647265737300604482015290519081900360640190fd5b61140c60008383611495565b600254611419908261112b565b6002556001600160a01b03821660009081526020819052604090205461143f908261112b565b6001600160a01b0383166000818152602081815260408083209490945583518581529351929391927fddf252ad1be2c89b69c2b068fc378daa952ba7f163c4a11628f55a4df523b3ef9281900390910190a35050565b50505056fe45524332303a207472616e7366657220746f20746865207a65726f206164647265737345524332303a206275726e20616d6f756e7420657863656564732062616c616e63654f776e61626c653a206e6577206f776e657220697320746865207a65726f206164647265737345524332303a20617070726f766520746f20746865207a65726f206164647265737345524332303a207472616e7366657220616d6f756e7420657863656564732062616c616e6365536166654d6174683a206d756c7469706c69636174696f6e206f766572666c6f7745524332303a207472616e7366657220616d6f756e74206578636565647320616c6c6f77616e636545524332303a206275726e2066726f6d20746865207a65726f206164647265737345524332303a207472616e736665722066726f6d20746865207a65726f206164647265737345524332303a20617070726f76652066726f6d20746865207a65726f206164647265737343616e27742068617665207769746864726177206665652067726561746572207468616e206d6178696d756d45524332303a2064656372656173656420616c6c6f77616e63652062656c6f77207a65726fa26469706673582212206c3a0a02fbc29962c185a0aa5813971d32dd10156e9f76144e65021505a6eb1864736f6c634300060c0033",
  "devdoc": {
    "kind": "dev",
    "methods": {
      "allowance(address,address)": {
        "details": "See {IERC20-allowance}."
      },
      "approve(address,uint256)": {
        "details": "See {IERC20-approve}. Requirements: - `spender` cannot be the zero address."
      },
      "balanceOf(address)": {
        "details": "See {IERC20-balanceOf}."
      },
      "decimals()": {
        "details": "Returns the number of decimals used to get its user representation. For example, if `decimals` equals `2`, a balance of `505` tokens should be displayed to a user as `5,05` (`505 / 10 ** 2`). Tokens usually opt for a value of 18, imitating the relationship between Ether and Wei. This is the value {ERC20} uses, unless {_setupDecimals} is called. NOTE: This information is only used for _display_ purposes: it in no way affects any of the arithmetic of the contract, including {IERC20-balanceOf} and {IERC20-transfer}."
      },
      "decreaseAllowance(address,uint256)": {
        "details": "Atomically decreases the allowance granted to `spender` by the caller. This is an alternative to {approve} that can be used as a mitigation for problems described in {IERC20-approve}. Emits an {Approval} event indicating the updated allowance. Requirements: - `spender` cannot be the zero address. - `spender` must have allowance for the caller of at least `subtractedValue`."
      },
      "increaseAllowance(address,uint256)": {
        "details": "Atomically increases the allowance granted to `spender` by the caller. This is an alternative to {approve} that can be used as a mitigation for problems described in {IERC20-approve}. Emits an {Approval} event indicating the updated allowance. Requirements: - `spender` cannot be the zero address."
      },
      "name()": {
        "details": "Returns the name of the token."
      },
      "owner()": {
        "details": "Returns the address of the current owner."
      },
      "renounceOwnership()": {
        "details": "Leaves the contract without owner. It will not be possible to call `onlyOwner` functions anymore. Can only be called by the current owner. NOTE: Renouncing ownership will leave the contract without an owner, thereby removing any functionality that is only available to the owner."
      },
      "symbol()": {
        "details": "Returns the symbol of the token, usually a shorter version of the name."
      },
      "totalSupply()": {
        "details": "See {IERC20-totalSupply}."
      },
      "transfer(address,uint256)": {
        "details": "See {IERC20-transfer}. Requirements: - `recipient` cannot be the zero address. - the caller must have a balance of at least `amount`."
      },
      "transferFrom(address,address,uint256)": {
        "details": "See {IERC20-transferFrom}. Emits an {Approval} event indicating the updated allowance. This is not required by the EIP. See the note at the beginning of {ERC20}. Requirements: - `sender` and `recipient` cannot be the zero address. - `sender` must have a balance of at least `amount`. - the caller must have allowance for ``sender``'s tokens of at least `amount`."
      },
      "transferOwnership(address)": {
        "details": "Transfers ownership of the contract to a new account (`newOwner`). Can only be called by the current owner."
      }
    },
    "version": 1
  },
  "userdoc": {
    "kind": "user",
    "methods": {},
    "version": 1
  },
  "storageLayout": {
    "storage": [
      {
        "astId": 2405,
        "contract": "contracts/xGDL.sol:XGDL",
        "label": "_balances",
        "offset": 0,
        "slot": "0",
        "type": "t_mapping(t_address,t_uint256)"
      },
      {
        "astId": 2411,
        "contract": "contracts/xGDL.sol:XGDL",
        "label": "_allowances",
        "offset": 0,
        "slot": "1",
        "type": "t_mapping(t_address,t_mapping(t_address,t_uint256))"
      },
      {
        "astId": 2413,
        "contract": "contracts/xGDL.sol:XGDL",
        "label": "_totalSupply",
        "offset": 0,
        "slot": "2",
        "type": "t_uint256"
      },
      {
        "astId": 2415,
        "contract": "contracts/xGDL.sol:XGDL",
        "label": "_name",
        "offset": 0,
        "slot": "3",
        "type": "t_string_storage"
      },
      {
        "astId": 2417,
        "contract": "contracts/xGDL.sol:XGDL",
        "label": "_symbol",
        "offset": 0,
        "slot": "4",
        "type": "t_string_storage"
      },
      {
        "astId": 2419,
        "contract": "contracts/xGDL.sol:XGDL",
        "label": "_decimals",
        "offset": 0,
        "slot": "5",
        "type": "t_uint8"
      },
      {
        "astId": 1711,
        "contract": "contracts/xGDL.sol:XGDL",
        "label": "_owner",
        "offset": 1,
        "slot": "5",
        "type": "t_address"
      },
      {
        "astId": 30365,
        "contract": "contracts/xGDL.sol:XGDL",
        "label": "gdl",
        "offset": 0,
        "slot": "6",
        "type": "t_contract(IERC20)3028"
      },
      {
        "astId": 30373,
        "contract": "contracts/xGDL.sol:XGDL",
        "label": "withdrawalFee",
        "offset": 0,
        "slot": "7",
        "type": "t_uint256"
      }
    ],
    "types": {
      "t_address": {
        "encoding": "inplace",
        "label": "address",
        "numberOfBytes": "20"
      },
      "t_contract(IERC20)3028": {
        "encoding": "inplace",
        "label": "contract IERC20",
        "numberOfBytes": "20"
      },
      "t_mapping(t_address,t_mapping(t_address,t_uint256))": {
        "encoding": "mapping",
        "key": "t_address",
        "label": "mapping(address => mapping(address => uint256))",
        "numberOfBytes": "32",
        "value": "t_mapping(t_address,t_uint256)"
      },
      "t_mapping(t_address,t_uint256)": {
        "encoding": "mapping",
        "key": "t_address",
        "label": "mapping(address => uint256)",
        "numberOfBytes": "32",
        "value": "t_uint256"
      },
      "t_string_storage": {
        "encoding": "bytes",
        "label": "string",
        "numberOfBytes": "32"
      },
      "t_uint256": {
        "encoding": "inplace",
        "label": "uint256",
        "numberOfBytes": "32"
      },
      "t_uint8": {
        "encoding": "inplace",
        "label": "uint8",
        "numberOfBytes": "1"
      }
    }
  }
}